{
  "_format": "hh-sol-artifact-1",
  "contractName": "Shout",
  "sourceName": "contracts/Shout.sol",
  "abi": [
    {
      "anonymous": false,
      "inputs": [
        {
          "indexed": false,
          "internalType": "address",
          "name": "from",
          "type": "address"
        },
        {
          "indexed": false,
          "internalType": "address",
          "name": "to",
          "type": "address"
        }
      ],
      "name": "messageSent",
      "type": "event"
    },
    {
      "inputs": [],
      "name": "getMessages",
      "outputs": [
        {
          "components": [
            {
              "internalType": "address",
              "name": "from",
              "type": "address"
            },
            {
              "internalType": "string",
              "name": "text",
              "type": "string"
            },
            {
              "internalType": "uint256",
              "name": "timestamp",
              "type": "uint256"
            }
          ],
          "internalType": "struct Shout.Message[]",
          "name": "",
          "type": "tuple[]"
        }
      ],
      "stateMutability": "view",
      "type": "function"
    },
    {
      "inputs": [
        {
          "internalType": "address",
          "name": "to",
          "type": "address"
        },
        {
          "internalType": "string",
          "name": "text",
          "type": "string"
        }
      ],
      "name": "sendMessage",
      "outputs": [],
      "stateMutability": "nonpayable",
      "type": "function"
    }
  ],
  "bytecode": "0x608060405234801561001057600080fd5b50610a74806100206000396000f3fe608060405234801561001057600080fd5b50600436106100365760003560e01c80635ff6cbf31461003b578063de6f24bb14610059575b600080fd5b610043610075565b60405161005091906105dc565b60405180910390f35b610073600480360381019061006e9190610699565b610202565b005b60606000803373ffffffffffffffffffffffffffffffffffffffff1673ffffffffffffffffffffffffffffffffffffffff168152602001908152602001600020805480602002602001604051908101604052809291908181526020016000905b828210156101f957838290600052602060002090600302016040518060600160405290816000820160009054906101000a900473ffffffffffffffffffffffffffffffffffffffff1673ffffffffffffffffffffffffffffffffffffffff1673ffffffffffffffffffffffffffffffffffffffff16815260200160018201805461015e90610728565b80601f016020809104026020016040519081016040528092919081815260200182805461018a90610728565b80156101d75780601f106101ac576101008083540402835291602001916101d7565b820191906000526020600020905b8154815290600101906020018083116101ba57829003601f168201915b50505050508152602001600282015481525050815260200190600101906100d5565b50505050905090565b61020a6103a9565b33816000019073ffffffffffffffffffffffffffffffffffffffff16908173ffffffffffffffffffffffffffffffffffffffff168152505082828080601f016020809104026020016040519081016040528093929190818152602001838380828437600081840152601f19601f820116905080830192505050505050508160200181905250428160400181815250506000808573ffffffffffffffffffffffffffffffffffffffff1673ffffffffffffffffffffffffffffffffffffffff16815260200190815260200160002081908060018154018082558091505060019003906000526020600020906003020160009091909190915060008201518160000160006101000a81548173ffffffffffffffffffffffffffffffffffffffff021916908373ffffffffffffffffffffffffffffffffffffffff160217905550602082015181600101908161035d9190610934565b506040820151816002015550507fe75308bf03d4e890fe492259079814dfbbe3a596a2a33d491b5850cda3aa3568338560405161039b929190610a15565b60405180910390a150505050565b6040518060600160405280600073ffffffffffffffffffffffffffffffffffffffff16815260200160608152602001600081525090565b600081519050919050565b600082825260208201905092915050565b6000819050602082019050919050565b600073ffffffffffffffffffffffffffffffffffffffff82169050919050565b60006104378261040c565b9050919050565b6104478161042c565b82525050565b600081519050919050565b600082825260208201905092915050565b60005b8381101561048757808201518184015260208101905061046c565b60008484015250505050565b6000601f19601f8301169050919050565b60006104af8261044d565b6104b98185610458565b93506104c9818560208601610469565b6104d281610493565b840191505092915050565b6000819050919050565b6104f0816104dd565b82525050565b600060608301600083015161050e600086018261043e565b506020830151848203602086015261052682826104a4565b915050604083015161053b60408601826104e7565b508091505092915050565b600061055283836104f6565b905092915050565b6000602082019050919050565b6000610572826103e0565b61057c81856103eb565b93508360208202850161058e856103fc565b8060005b858110156105ca57848403895281516105ab8582610546565b94506105b68361055a565b925060208a01995050600181019050610592565b50829750879550505050505092915050565b600060208201905081810360008301526105f68184610567565b905092915050565b600080fd5b600080fd5b6106118161042c565b811461061c57600080fd5b50565b60008135905061062e81610608565b92915050565b600080fd5b600080fd5b600080fd5b60008083601f84011261065957610658610634565b5b8235905067ffffffffffffffff81111561067657610675610639565b5b6020830191508360018202830111156106925761069161063e565b5b9250929050565b6000806000604084860312156106b2576106b16105fe565b5b60006106c08682870161061f565b935050602084013567ffffffffffffffff8111156106e1576106e0610603565b5b6106ed86828701610643565b92509250509250925092565b7f4e487b7100000000000000000000000000000000000000000000000000000000600052602260045260246000fd5b6000600282049050600182168061074057607f821691505b602082108103610753576107526106f9565b5b50919050565b7f4e487b7100000000000000000000000000000000000000000000000000000000600052604160045260246000fd5b60008190508160005260206000209050919050565b60006020601f8301049050919050565b600082821b905092915050565b6000600883026107ea7fffffffffffffffffffffffffffffffffffffffffffffffffffffffffffffffff826107ad565b6107f486836107ad565b95508019841693508086168417925050509392505050565b6000819050919050565b600061083161082c610827846104dd565b61080c565b6104dd565b9050919050565b6000819050919050565b61084b83610816565b61085f61085782610838565b8484546107ba565b825550505050565b600090565b610874610867565b61087f818484610842565b505050565b5b818110156108a35761089860008261086c565b600181019050610885565b5050565b601f8211156108e8576108b981610788565b6108c28461079d565b810160208510156108d1578190505b6108e56108dd8561079d565b830182610884565b50505b505050565b600082821c905092915050565b600061090b600019846008026108ed565b1980831691505092915050565b600061092483836108fa565b9150826002028217905092915050565b61093d8261044d565b67ffffffffffffffff81111561095657610955610759565b5b6109608254610728565b61096b8282856108a7565b600060209050601f83116001811461099e576000841561098c578287015190505b6109968582610918565b8655506109fe565b601f1984166109ac86610788565b60005b828110156109d4578489015182556001820191506020850194506020810190506109af565b868310156109f157848901516109ed601f8916826108fa565b8355505b6001600288020188555050505b505050505050565b610a0f8161042c565b82525050565b6000604082019050610a2a6000830185610a06565b610a376020830184610a06565b939250505056fea264697066735822122013259576f2ac0506debb4789a34383d7ae0dbedb10d09aac1f32463866d9817c64736f6c63430008110033",
  "linkReferences": {},
  "deployedLinkReferences": {}
}