{
    "_format": "hh-sol-artifact-1",
    "contractName": "Whisper",
    "sourceName": "contracts/Whisper.sol",
    "abi": [
        {
            "inputs": [],
            "name": "getMessages",
            "outputs": [
                {
                    "components": [
                        {
                            "internalType": "address",
                            "name": "from",
                            "type": "address"
                        },
                        {
                            "internalType": "string",
                            "name": "text",
                            "type": "string"
                        },
                        {
                            "internalType": "uint256",
                            "name": "timestamp",
                            "type": "uint256"
                        }
                    ],
                    "internalType": "struct Whisper.Message[]",
                    "name": "",
                    "type": "tuple[]"
                }
            ],
            "stateMutability": "view",
            "type": "function"
        },
        {
            "inputs": [
                {
                    "internalType": "address",
                    "name": "to",
                    "type": "address"
                },
                {
                    "internalType": "string",
                    "name": "text",
                    "type": "string"
                }
            ],
            "name": "sendMessage",
            "outputs": [],
            "stateMutability": "nonpayable",
            "type": "function"
        }
    ],
    "bytecode": "0x608060405234801561001057600080fd5b50610a03806100206000396000f3fe608060405234801561001057600080fd5b50600436106100365760003560e01c80635ff6cbf31461003b578063de6f24bb14610059575b600080fd5b610043610075565b60405161005091906105a3565b60405180910390f35b610073600480360381019061006e9190610660565b610202565b005b60606000803373ffffffffffffffffffffffffffffffffffffffff1673ffffffffffffffffffffffffffffffffffffffff168152602001908152602001600020805480602002602001604051908101604052809291908181526020016000905b828210156101f957838290600052602060002090600302016040518060600160405290816000820160009054906101000a900473ffffffffffffffffffffffffffffffffffffffff1673ffffffffffffffffffffffffffffffffffffffff1673ffffffffffffffffffffffffffffffffffffffff16815260200160018201805461015e906106ef565b80601f016020809104026020016040519081016040528092919081815260200182805461018a906106ef565b80156101d75780601f106101ac576101008083540402835291602001916101d7565b820191906000526020600020905b8154815290600101906020018083116101ba57829003601f168201915b50505050508152602001600282015481525050815260200190600101906100d5565b50505050905090565b61020a610370565b33816000019073ffffffffffffffffffffffffffffffffffffffff16908173ffffffffffffffffffffffffffffffffffffffff168152505082828080601f016020809104026020016040519081016040528093929190818152602001838380828437600081840152601f19601f820116905080830192505050505050508160200181905250428160400181815250506000808573ffffffffffffffffffffffffffffffffffffffff1673ffffffffffffffffffffffffffffffffffffffff16815260200190815260200160002081908060018154018082558091505060019003906000526020600020906003020160009091909190915060008201518160000160006101000a81548173ffffffffffffffffffffffffffffffffffffffff021916908373ffffffffffffffffffffffffffffffffffffffff160217905550602082015181600101908161035d91906108fb565b5060408201518160020155505050505050565b6040518060600160405280600073ffffffffffffffffffffffffffffffffffffffff16815260200160608152602001600081525090565b600081519050919050565b600082825260208201905092915050565b6000819050602082019050919050565b600073ffffffffffffffffffffffffffffffffffffffff82169050919050565b60006103fe826103d3565b9050919050565b61040e816103f3565b82525050565b600081519050919050565b600082825260208201905092915050565b60005b8381101561044e578082015181840152602081019050610433565b60008484015250505050565b6000601f19601f8301169050919050565b600061047682610414565b610480818561041f565b9350610490818560208601610430565b6104998161045a565b840191505092915050565b6000819050919050565b6104b7816104a4565b82525050565b60006060830160008301516104d56000860182610405565b50602083015184820360208601526104ed828261046b565b915050604083015161050260408601826104ae565b508091505092915050565b600061051983836104bd565b905092915050565b6000602082019050919050565b6000610539826103a7565b61054381856103b2565b935083602082028501610555856103c3565b8060005b858110156105915784840389528151610572858261050d565b945061057d83610521565b925060208a01995050600181019050610559565b50829750879550505050505092915050565b600060208201905081810360008301526105bd818461052e565b905092915050565b600080fd5b600080fd5b6105d8816103f3565b81146105e357600080fd5b50565b6000813590506105f5816105cf565b92915050565b600080fd5b600080fd5b600080fd5b60008083601f8401126106205761061f6105fb565b5b8235905067ffffffffffffffff81111561063d5761063c610600565b5b60208301915083600182028301111561065957610658610605565b5b9250929050565b600080600060408486031215610679576106786105c5565b5b6000610687868287016105e6565b935050602084013567ffffffffffffffff8111156106a8576106a76105ca565b5b6106b48682870161060a565b92509250509250925092565b7f4e487b7100000000000000000000000000000000000000000000000000000000600052602260045260246000fd5b6000600282049050600182168061070757607f821691505b60208210810361071a576107196106c0565b5b50919050565b7f4e487b7100000000000000000000000000000000000000000000000000000000600052604160045260246000fd5b60008190508160005260206000209050919050565b60006020601f8301049050919050565b600082821b905092915050565b6000600883026107b17fffffffffffffffffffffffffffffffffffffffffffffffffffffffffffffffff82610774565b6107bb8683610774565b95508019841693508086168417925050509392505050565b6000819050919050565b60006107f86107f36107ee846104a4565b6107d3565b6104a4565b9050919050565b6000819050919050565b610812836107dd565b61082661081e826107ff565b848454610781565b825550505050565b600090565b61083b61082e565b610846818484610809565b505050565b5b8181101561086a5761085f600082610833565b60018101905061084c565b5050565b601f8211156108af576108808161074f565b61088984610764565b81016020851015610898578190505b6108ac6108a485610764565b83018261084b565b50505b505050565b600082821c905092915050565b60006108d2600019846008026108b4565b1980831691505092915050565b60006108eb83836108c1565b9150826002028217905092915050565b61090482610414565b67ffffffffffffffff81111561091d5761091c610720565b5b61092782546106ef565b61093282828561086e565b600060209050601f8311600181146109655760008415610953578287015190505b61095d85826108df565b8655506109c5565b601f1984166109738661074f565b60005b8281101561099b57848901518255600182019150602085019450602081019050610976565b868310156109b857848901516109b4601f8916826108c1565b8355505b6001600288020188555050505b50505050505056fea2646970667358221220adbca6d07433ddb23779f3fa9e1aaa12f3b3db3a34f412612d683f6259596d9364736f6c63430008110033",
    "linkReferences": {},
    "deployedLinkReferences": {}
}